{
  "_format": "hh-sol-artifact-1",
  "contractName": "SpriteClubStormdrop",
  "sourceName": "contracts/Stormdrop.sol",
  "abi": [
    {
      "inputs": [
        {
          "internalType": "address",
          "name": "intitialSpritesContract",
          "type": "address"
        },
        {
          "internalType": "string",
          "name": "initialMetadataBaseURI",
          "type": "string"
        },
        {
          "internalType": "string",
          "name": "initialCollectionURI",
          "type": "string"
        },
        {
          "internalType": "uint16",
          "name": "initialRoyaltyBasisPoints",
          "type": "uint16"
        }
      ],
      "stateMutability": "nonpayable",
      "type": "constructor"
    },
    {
      "anonymous": false,
      "inputs": [
        {
          "indexed": true,
          "internalType": "address",
          "name": "account",
          "type": "address"
        },
        {
          "indexed": true,
          "internalType": "address",
          "name": "operator",
          "type": "address"
        },
        {
          "indexed": false,
          "internalType": "bool",
          "name": "approved",
          "type": "bool"
        }
      ],
      "name": "ApprovalForAll",
      "type": "event"
    },
    {
      "anonymous": false,
      "inputs": [
        {
          "indexed": true,
          "internalType": "address",
          "name": "previousOwner",
          "type": "address"
        },
        {
          "indexed": true,
          "internalType": "address",
          "name": "newOwner",
          "type": "address"
        }
      ],
      "name": "OwnershipTransferred",
      "type": "event"
    },
    {
      "anonymous": false,
      "inputs": [
        {
          "indexed": false,
          "internalType": "address",
          "name": "account",
          "type": "address"
        }
      ],
      "name": "Paused",
      "type": "event"
    },
    {
      "anonymous": false,
      "inputs": [
        {
          "indexed": true,
          "internalType": "address",
          "name": "operator",
          "type": "address"
        },
        {
          "indexed": true,
          "internalType": "address",
          "name": "from",
          "type": "address"
        },
        {
          "indexed": true,
          "internalType": "address",
          "name": "to",
          "type": "address"
        },
        {
          "indexed": false,
          "internalType": "uint256[]",
          "name": "ids",
          "type": "uint256[]"
        },
        {
          "indexed": false,
          "internalType": "uint256[]",
          "name": "values",
          "type": "uint256[]"
        }
      ],
      "name": "TransferBatch",
      "type": "event"
    },
    {
      "anonymous": false,
      "inputs": [
        {
          "indexed": true,
          "internalType": "address",
          "name": "operator",
          "type": "address"
        },
        {
          "indexed": true,
          "internalType": "address",
          "name": "from",
          "type": "address"
        },
        {
          "indexed": true,
          "internalType": "address",
          "name": "to",
          "type": "address"
        },
        {
          "indexed": false,
          "internalType": "uint256",
          "name": "id",
          "type": "uint256"
        },
        {
          "indexed": false,
          "internalType": "uint256",
          "name": "value",
          "type": "uint256"
        }
      ],
      "name": "TransferSingle",
      "type": "event"
    },
    {
      "anonymous": false,
      "inputs": [
        {
          "indexed": false,
          "internalType": "string",
          "name": "value",
          "type": "string"
        },
        {
          "indexed": true,
          "internalType": "uint256",
          "name": "id",
          "type": "uint256"
        }
      ],
      "name": "URI",
      "type": "event"
    },
    {
      "anonymous": false,
      "inputs": [
        {
          "indexed": false,
          "internalType": "address",
          "name": "account",
          "type": "address"
        }
      ],
      "name": "Unpaused",
      "type": "event"
    },
    {
      "inputs": [],
      "name": "ITEM_LIMIT",
      "outputs": [
        {
          "internalType": "uint256",
          "name": "",
          "type": "uint256"
        }
      ],
      "stateMutability": "view",
      "type": "function"
    },
    {
      "inputs": [
        {
          "internalType": "address",
          "name": "account",
          "type": "address"
        },
        {
          "internalType": "uint256",
          "name": "id",
          "type": "uint256"
        }
      ],
      "name": "balanceOf",
      "outputs": [
        {
          "internalType": "uint256",
          "name": "",
          "type": "uint256"
        }
      ],
      "stateMutability": "view",
      "type": "function"
    },
    {
      "inputs": [
        {
          "internalType": "address[]",
          "name": "accounts",
          "type": "address[]"
        },
        {
          "internalType": "uint256[]",
          "name": "ids",
          "type": "uint256[]"
        }
      ],
      "name": "balanceOfBatch",
      "outputs": [
        {
          "internalType": "uint256[]",
          "name": "",
          "type": "uint256[]"
        }
      ],
      "stateMutability": "view",
      "type": "function"
    },
    {
      "inputs": [
        {
          "internalType": "uint256[]",
          "name": "spriteIds",
          "type": "uint256[]"
        },
        {
          "internalType": "uint256[]",
          "name": "itemIds",
          "type": "uint256[]"
        },
        {
          "internalType": "bytes32[][]",
          "name": "proofs",
          "type": "bytes32[][]"
        }
      ],
      "name": "claim",
      "outputs": [],
      "stateMutability": "nonpayable",
      "type": "function"
    },
    {
      "inputs": [
        {
          "internalType": "uint256",
          "name": "",
          "type": "uint256"
        }
      ],
      "name": "claimedSpriteItemIdMap",
      "outputs": [
        {
          "internalType": "uint256",
          "name": "",
          "type": "uint256"
        }
      ],
      "stateMutability": "view",
      "type": "function"
    },
    {
      "inputs": [],
      "name": "collectionURI",
      "outputs": [
        {
          "internalType": "string",
          "name": "",
          "type": "string"
        }
      ],
      "stateMutability": "view",
      "type": "function"
    },
    {
      "inputs": [],
      "name": "contractURI",
      "outputs": [
        {
          "internalType": "string",
          "name": "",
          "type": "string"
        }
      ],
      "stateMutability": "view",
      "type": "function"
    },
    {
      "inputs": [
        {
          "internalType": "uint256",
          "name": "id",
          "type": "uint256"
        }
      ],
      "name": "exists",
      "outputs": [
        {
          "internalType": "bool",
          "name": "",
          "type": "bool"
        }
      ],
      "stateMutability": "view",
      "type": "function"
    },
    {
      "inputs": [
        {
          "internalType": "address",
          "name": "account",
          "type": "address"
        },
        {
          "internalType": "address",
          "name": "operator",
          "type": "address"
        }
      ],
      "name": "isApprovedForAll",
      "outputs": [
        {
          "internalType": "bool",
          "name": "",
          "type": "bool"
        }
      ],
      "stateMutability": "view",
      "type": "function"
    },
    {
      "inputs": [],
      "name": "isDropActive",
      "outputs": [
        {
          "internalType": "bool",
          "name": "",
          "type": "bool"
        }
      ],
      "stateMutability": "view",
      "type": "function"
    },
    {
      "inputs": [],
      "name": "name",
      "outputs": [
        {
          "internalType": "string",
          "name": "",
          "type": "string"
        }
      ],
      "stateMutability": "view",
      "type": "function"
    },
    {
      "inputs": [],
      "name": "owner",
      "outputs": [
        {
          "internalType": "address",
          "name": "",
          "type": "address"
        }
      ],
      "stateMutability": "view",
      "type": "function"
    },
    {
      "inputs": [],
      "name": "pause",
      "outputs": [],
      "stateMutability": "nonpayable",
      "type": "function"
    },
    {
      "inputs": [],
      "name": "paused",
      "outputs": [
        {
          "internalType": "bool",
          "name": "",
          "type": "bool"
        }
      ],
      "stateMutability": "view",
      "type": "function"
    },
    {
      "inputs": [],
      "name": "renounceOwnership",
      "outputs": [],
      "stateMutability": "nonpayable",
      "type": "function"
    },
    {
      "inputs": [],
      "name": "royaltyBasisPoints",
      "outputs": [
        {
          "internalType": "uint16",
          "name": "",
          "type": "uint16"
        }
      ],
      "stateMutability": "view",
      "type": "function"
    },
    {
      "inputs": [
        {
          "internalType": "uint256",
          "name": "",
          "type": "uint256"
        },
        {
          "internalType": "uint256",
          "name": "salePrice",
          "type": "uint256"
        }
      ],
      "name": "royaltyInfo",
      "outputs": [
        {
          "internalType": "address",
          "name": "",
          "type": "address"
        },
        {
          "internalType": "uint256",
          "name": "",
          "type": "uint256"
        }
      ],
      "stateMutability": "view",
      "type": "function"
    },
    {
      "inputs": [
        {
          "internalType": "address",
          "name": "from",
          "type": "address"
        },
        {
          "internalType": "address",
          "name": "to",
          "type": "address"
        },
        {
          "internalType": "uint256[]",
          "name": "ids",
          "type": "uint256[]"
        },
        {
          "internalType": "uint256[]",
          "name": "amounts",
          "type": "uint256[]"
        },
        {
          "internalType": "bytes",
          "name": "data",
          "type": "bytes"
        }
      ],
      "name": "safeBatchTransferFrom",
      "outputs": [],
      "stateMutability": "nonpayable",
      "type": "function"
    },
    {
      "inputs": [
        {
          "internalType": "address",
          "name": "from",
          "type": "address"
        },
        {
          "internalType": "address",
          "name": "to",
          "type": "address"
        },
        {
          "internalType": "uint256",
          "name": "id",
          "type": "uint256"
        },
        {
          "internalType": "uint256",
          "name": "amount",
          "type": "uint256"
        },
        {
          "internalType": "bytes",
          "name": "data",
          "type": "bytes"
        }
      ],
      "name": "safeTransferFrom",
      "outputs": [],
      "stateMutability": "nonpayable",
      "type": "function"
    },
    {
      "inputs": [
        {
          "internalType": "address",
          "name": "operator",
          "type": "address"
        },
        {
          "internalType": "bool",
          "name": "approved",
          "type": "bool"
        }
      ],
      "name": "setApprovalForAll",
      "outputs": [],
      "stateMutability": "nonpayable",
      "type": "function"
    },
    {
      "inputs": [
        {
          "internalType": "string",
          "name": "newCollectionURI",
          "type": "string"
        }
      ],
      "name": "setCollectionURI",
      "outputs": [],
      "stateMutability": "nonpayable",
      "type": "function"
    },
    {
      "inputs": [
        {
          "internalType": "bool",
          "name": "newIsDropActive",
          "type": "bool"
        }
      ],
      "name": "setIsDropActive",
      "outputs": [],
      "stateMutability": "nonpayable",
      "type": "function"
    },
    {
      "inputs": [
        {
          "internalType": "string",
          "name": "newMetadataBaseURI",
          "type": "string"
        }
      ],
      "name": "setMetadataBaseURI",
      "outputs": [],
      "stateMutability": "nonpayable",
      "type": "function"
    },
    {
      "inputs": [
        {
          "internalType": "uint16",
          "name": "newRoyaltyBasisPoints",
          "type": "uint16"
        }
      ],
      "name": "setRoyaltyBasisPoints",
      "outputs": [],
      "stateMutability": "nonpayable",
      "type": "function"
    },
    {
      "inputs": [
        {
          "internalType": "bytes32",
          "name": "newSpriteItemIdMapMerkleRoot",
          "type": "bytes32"
        }
      ],
      "name": "setSpriteItemIdMapMerkleRoot",
      "outputs": [],
      "stateMutability": "nonpayable",
      "type": "function"
    },
    {
      "inputs": [],
      "name": "spriteItemIdMapMerkleRoot",
      "outputs": [
        {
          "internalType": "bytes32",
          "name": "",
          "type": "bytes32"
        }
      ],
      "stateMutability": "view",
      "type": "function"
    },
    {
      "inputs": [],
      "name": "spritesContract",
      "outputs": [
        {
          "internalType": "contract Sprites",
          "name": "",
          "type": "address"
        }
      ],
      "stateMutability": "view",
      "type": "function"
    },
    {
      "inputs": [
        {
          "internalType": "bytes4",
          "name": "interfaceId",
          "type": "bytes4"
        }
      ],
      "name": "supportsInterface",
      "outputs": [
        {
          "internalType": "bool",
          "name": "",
          "type": "bool"
        }
      ],
      "stateMutability": "view",
      "type": "function"
    },
    {
      "inputs": [],
      "name": "symbol",
      "outputs": [
        {
          "internalType": "string",
          "name": "",
          "type": "string"
        }
      ],
      "stateMutability": "view",
      "type": "function"
    },
    {
      "inputs": [
        {
          "internalType": "uint256",
          "name": "id",
          "type": "uint256"
        }
      ],
      "name": "totalSupply",
      "outputs": [
        {
          "internalType": "uint256",
          "name": "",
          "type": "uint256"
        }
      ],
      "stateMutability": "view",
      "type": "function"
    },
    {
      "inputs": [
        {
          "internalType": "address",
          "name": "newOwner",
          "type": "address"
        }
      ],
      "name": "transferOwnership",
      "outputs": [],
      "stateMutability": "nonpayable",
      "type": "function"
    },
    {
      "inputs": [],
      "name": "unpause",
      "outputs": [],
      "stateMutability": "nonpayable",
      "type": "function"
    },
    {
      "inputs": [
        {
          "internalType": "uint256",
          "name": "tokenId",
          "type": "uint256"
        }
      ],
      "name": "uri",
      "outputs": [
        {
          "internalType": "string",
          "name": "",
          "type": "string"
        }
      ],
      "stateMutability": "view",
      "type": "function"
    },
    {
      "inputs": [],
      "name": "withdraw",
      "outputs": [],
      "stateMutability": "nonpayable",
      "type": "function"
    }
  ],
  "bytecode": "0x60806040526005600c553480156200001657600080fd5b50604051620034a5380380620034a58339810160408190526200003991620002f6565b8262000045816200012e565b50620000513362000147565b6004805460ff60a01b191690556040805180820190915260158082527f53707269746520436c75622053746f726d64726f7000000000000000000000006020909201918252620000a49160079162000199565b50604080518082019091526004808252634954454d60e01b6020909201918252620000d29160089162000199565b50600980546001600160a01b0319166001600160a01b03861617905581516200010390600a90602085019062000199565b506009805461ffff909216600160a01b0261ffff60a01b1990921691909117905550620003ee915050565b80516200014390600290602084019062000199565b5050565b600480546001600160a01b038381166001600160a01b0319831681179093556040519116919082907f8be0079c531659141344cd1fd0a4f28419497f9722a3daafe3b4186f6b6457e090600090a35050565b828054620001a7906200039b565b90600052602060002090601f016020900481019282620001cb576000855562000216565b82601f10620001e657805160ff191683800117855562000216565b8280016001018555821562000216579182015b8281111562000216578251825591602001919060010190620001f9565b506200022492915062000228565b5090565b5b8082111562000224576000815560010162000229565b600082601f8301126200025157600080fd5b81516001600160401b03808211156200026e576200026e620003d8565b604051601f8301601f19908116603f01168101908282118183101715620002995762000299620003d8565b81604052838152602092508683858801011115620002b657600080fd5b600091505b83821015620002da5785820183015181830184015290820190620002bb565b83821115620002ec5760008385830101525b9695505050505050565b600080600080608085870312156200030d57600080fd5b84516001600160a01b03811681146200032557600080fd5b60208601519094506001600160401b03808211156200034357600080fd5b62000351888389016200023f565b945060408701519150808211156200036857600080fd5b5062000377878288016200023f565b925050606085015161ffff811681146200039057600080fd5b939692955090935050565b600181811c90821680620003b057607f821691505b60208210811415620003d257634e487b7160e01b600052602260045260246000fd5b50919050565b634e487b7160e01b600052604160045260246000fd5b6130a780620003fe6000396000f3fe608060405234801561001057600080fd5b50600436106102255760003560e01c80638456cb591161012a578063bd85b039116100bd578063e985e9c51161008c578063f2fde38b11610071578063f2fde38b146104e2578063fb94bd8a146104f5578063fd051d621461050857600080fd5b8063e985e9c514610493578063f242432a146104cf57600080fd5b8063bd85b0391461044f578063c80b9da81461046f578063e1021f4414610478578063e8a3d4851461048b57600080fd5b8063a1202197116100f9578063a12021971461040d578063a22cb46514610420578063a5097ebf14610433578063aa1d2c571461043b57600080fd5b80638456cb59146103c55780638da5cb5b146103cd5780638e62a807146103f257806395d89b411461040557600080fd5b80633ccfd60b116101bd5780634f558e791161018c57806360a50cf01161017157806360a50cf01461038a578063676c7e5e146103aa578063715018a6146103bd57600080fd5b80634f558e79146103565780635c975abb1461037857600080fd5b80633ccfd60b146102fe5780633f4ba83a1461030657806342260b5d1461030e5780634e1273f41461033657600080fd5b806310b80a2b116101f957806310b80a2b1461029b5780632639f460146102a45780632a55205a146102b95780632eb2c2d6146102eb57600080fd5b8062fdd58e1461022a57806301ffc9a71461025057806306fdde03146102735780630e89341c14610288575b600080fd5b61023d6102383660046128f0565b61051b565b6040519081526020015b60405180910390f35b61026361025e366004612abd565b6105c4565b6040519015158152602001610247565b61027b610661565b6040516102479190612d9e565b61027b610296366004612aa4565b6106ef565b61023d600c5481565b6102b76102b2366004612af7565b6107ad565b005b6102cc6102c7366004612b8d565b610818565b604080516001600160a01b039093168352602083019190915201610247565b6102b76102f93660046127a4565b610851565b6102b76108f3565b6102b761099c565b60095461032390600160a01b900461ffff1681565b60405161ffff9091168152602001610247565b61034961034436600461291c565b610a00565b6040516102479190612d66565b610263610364366004612aa4565b600090815260036020526040902054151590565b600454600160a01b900460ff16610263565b61023d610398366004612aa4565b60066020526000908152604090205481565b6102b76103b8366004612b69565b610b3e565b6102b7610c4f565b6102b7610cb3565b6004546001600160a01b03165b6040516001600160a01b039091168152602001610247565b6102b7610400366004612a89565b610d15565b61027b610e43565b6009546103da906001600160a01b031681565b6102b761042e3660046128bb565b610e50565b61027b610e5b565b60045461026390600160a81b900460ff1681565b61023d61045d366004612aa4565b60009081526003602052604090205490565b61023d60055481565b6102b76104863660046129ef565b610e68565b61027b61124d565b6102636104a136600461276b565b6001600160a01b03918216600090815260016020908152604080832093909416825291909152205460ff1690565b6102b76104dd366004612852565b6112df565b6102b76104f036600461272a565b61137a565b6102b7610503366004612af7565b61145c565b6102b7610516366004612aa4565b6114f5565b60006001600160a01b03831661059e5760405162461bcd60e51b815260206004820152602b60248201527f455243313135353a2062616c616e636520717565727920666f7220746865207a60448201527f65726f206164647265737300000000000000000000000000000000000000000060648201526084015b60405180910390fd5b506000908152602081815260408083206001600160a01b03949094168352929052205490565b60006001600160e01b031982167fd9b67a2600000000000000000000000000000000000000000000000000000000148061062757506001600160e01b031982167f0e89341c00000000000000000000000000000000000000000000000000000000145b8061065b57507f01ffc9a7000000000000000000000000000000000000000000000000000000006001600160e01b03198316145b92915050565b6007805461066e90612eb1565b80601f016020809104026020016040519081016040528092919081815260200182805461069a90612eb1565b80156106e75780601f106106bc576101008083540402835291602001916106e7565b820191906000526020600020905b8154815290600101906020018083116106ca57829003601f168201915b505050505081565b600081815260036020526040812054606091106107745760405162461bcd60e51b815260206004820152603060248201527f537072697465436c756253746f726d64726f703a20717565727920666f72206e60448201527f6f6e6578697374656e7420746f6b656e000000000000000000000000000000006064820152608401610595565b61077d82611554565b610786836115e8565b604051602001610797929190612c16565b6040516020818303038152906040529050919050565b6004546001600160a01b031633146108075760405162461bcd60e51b815260206004820181905260248201527f4f776e61626c653a2063616c6c6572206973206e6f7420746865206f776e65726044820152606401610595565b610813600a83836124d8565b505050565b600954600090819030906127109061083b90600160a01b900461ffff1686612e4b565b6108459190612e37565b915091505b9250929050565b6001600160a01b03851633148061086d575061086d85336104a1565b6108df5760405162461bcd60e51b815260206004820152603260248201527f455243313135353a207472616e736665722063616c6c6572206973206e6f742060448201527f6f776e6572206e6f7220617070726f76656400000000000000000000000000006064820152608401610595565b6108ec8585858585611722565b5050505050565b6004546001600160a01b0316331461094d5760405162461bcd60e51b815260206004820181905260248201527f4f776e61626c653a2063616c6c6572206973206e6f7420746865206f776e65726044820152606401610595565b476109606004546001600160a01b031690565b6001600160a01b03166108fc829081150290604051600060405180830381858888f19350505050158015610998573d6000803e3d6000fd5b5050565b6004546001600160a01b031633146109f65760405162461bcd60e51b815260206004820181905260248201527f4f776e61626c653a2063616c6c6572206973206e6f7420746865206f776e65726044820152606401610595565b6109fe6119a3565b565b60608151835114610a795760405162461bcd60e51b815260206004820152602960248201527f455243313135353a206163636f756e747320616e6420696473206c656e67746860448201527f206d69736d6174636800000000000000000000000000000000000000000000006064820152608401610595565b6000835167ffffffffffffffff811115610a9557610a95612f8a565b604051908082528060200260200182016040528015610abe578160200160208202803683370190505b50905060005b8451811015610b3657610b09858281518110610ae257610ae2612f74565b6020026020010151858381518110610afc57610afc612f74565b602002602001015161051b565b828281518110610b1b57610b1b612f74565b6020908102919091010152610b2f81612f19565b9050610ac4565b509392505050565b6004546001600160a01b03163314610b985760405162461bcd60e51b815260206004820181905260248201527f4f776e61626c653a2063616c6c6572206973206e6f7420746865206f776e65726044820152606401610595565b6113888161ffff1610610c135760405162461bcd60e51b815260206004820152603c60248201527f537072697465436c756253746f726d64726f703a20726f79616c74794261736960448201527f73506f696e7473206d757374206265203c2035303030202835302529000000006064820152608401610595565b6009805461ffff909216600160a01b027fffffffffffffffffffff0000ffffffffffffffffffffffffffffffffffffffff909216919091179055565b6004546001600160a01b03163314610ca95760405162461bcd60e51b815260206004820181905260248201527f4f776e61626c653a2063616c6c6572206973206e6f7420746865206f776e65726044820152606401610595565b6109fe6000611a49565b6004546001600160a01b03163314610d0d5760405162461bcd60e51b815260206004820181905260248201527f4f776e61626c653a2063616c6c6572206973206e6f7420746865206f776e65726044820152606401610595565b6109fe611ab3565b6004546001600160a01b03163314610d6f5760405162461bcd60e51b815260206004820181905260248201527f4f776e61626c653a2063616c6c6572206973206e6f7420746865206f776e65726044820152606401610595565b600554610e0a5760405162461bcd60e51b815260206004820152604660248201527f537072697465436c756253746f726d64726f703a2063616e6e6f74207374617260448201527f74206966207370726974654974656d49644d61704d65726b6c65526f6f74206e60648201527f6f74207365740000000000000000000000000000000000000000000000000000608482015260a401610595565b60048054911515600160a81b027fffffffffffffffffffff00ffffffffffffffffffffffffffffffffffffffffff909216919091179055565b6008805461066e90612eb1565b610998338383611b48565b600a805461066e90612eb1565b60005b85811015611244576000878783818110610e8757610e87612f74565b9050602002013590506000868684818110610ea457610ea4612f74565b905060200201359050366000868686818110610ec257610ec2612f74565b9050602002810190610ed49190612db1565b91509150610edf3390565b6009546040517f6352211e000000000000000000000000000000000000000000000000000000008152600481018790526001600160a01b039283169290911690636352211e9060240160206040518083038186803b158015610f4057600080fd5b505afa158015610f54573d6000803e3d6000fd5b505050506040513d601f19601f82011682018060405250810190610f78919061274e565b6001600160a01b031614610ff45760405162461bcd60e51b815260206004820152602260248201527f537072697465436c756253746f726d64726f703a206e6f7420746865206f776e60448201527f65720000000000000000000000000000000000000000000000000000000000006064820152608401610595565b600454600160a81b900460ff166110725760405162461bcd60e51b8152602060048201526024808201527f537072697465436c756253746f726d64726f703a2064726f70206e6f7420616360448201527f74697665000000000000000000000000000000000000000000000000000000006064820152608401610595565b6000831180156110845750600c548311155b6110f65760405162461bcd60e51b815260206004820152602360248201527f537072697465436c756253746f726d64726f703a20696e76616c69642069746560448201527f6d496400000000000000000000000000000000000000000000000000000000006064820152608401610595565b600084815260066020526040902054156111775760405162461bcd60e51b8152602060048201526024808201527f537072697465436c756253746f726d64726f703a20616c726561647920636c6160448201527f696d6564000000000000000000000000000000000000000000000000000000006064820152608401610595565b61118e6111848585611c3d565b6005548484611c80565b6112005760405162461bcd60e51b815260206004820152602260248201527f537072697465436c756253746f726d64726f703a20696e76616c69642070726f60448201527f6f660000000000000000000000000000000000000000000000000000000000006064820152608401610595565b600084815260066020526040902083905561122d3384600160405180602001604052806000815250611ccb565b50505050808061123c90612f19565b915050610e6b565b50505050505050565b6060600a805461125c90612eb1565b80601f016020809104026020016040519081016040528092919081815260200182805461128890612eb1565b80156112d55780601f106112aa576101008083540402835291602001916112d5565b820191906000526020600020905b8154815290600101906020018083116112b857829003601f168201915b5050505050905090565b6001600160a01b0385163314806112fb57506112fb85336104a1565b61136d5760405162461bcd60e51b815260206004820152602960248201527f455243313135353a2063616c6c6572206973206e6f74206f776e6572206e6f7260448201527f20617070726f76656400000000000000000000000000000000000000000000006064820152608401610595565b6108ec8585858585611df7565b6004546001600160a01b031633146113d45760405162461bcd60e51b815260206004820181905260248201527f4f776e61626c653a2063616c6c6572206973206e6f7420746865206f776e65726044820152606401610595565b6001600160a01b0381166114505760405162461bcd60e51b815260206004820152602660248201527f4f776e61626c653a206e6577206f776e657220697320746865207a65726f206160448201527f64647265737300000000000000000000000000000000000000000000000000006064820152608401610595565b61145981611a49565b50565b6004546001600160a01b031633146114b65760405162461bcd60e51b815260206004820181905260248201527f4f776e61626c653a2063616c6c6572206973206e6f7420746865206f776e65726044820152606401610595565b61099882828080601f016020809104026020016040519081016040528093929190818152602001838380828437600092019190915250611f8c92505050565b6004546001600160a01b0316331461154f5760405162461bcd60e51b815260206004820181905260248201527f4f776e61626c653a2063616c6c6572206973206e6f7420746865206f776e65726044820152606401610595565b600555565b60606002805461156390612eb1565b80601f016020809104026020016040519081016040528092919081815260200182805461158f90612eb1565b80156115dc5780601f106115b1576101008083540402835291602001916115dc565b820191906000526020600020905b8154815290600101906020018083116115bf57829003601f168201915b50505050509050919050565b60608161162857505060408051808201909152600181527f3000000000000000000000000000000000000000000000000000000000000000602082015290565b8160005b8115611652578061163c81612f19565b915061164b9050600a83612e37565b915061162c565b60008167ffffffffffffffff81111561166d5761166d612f8a565b6040519080825280601f01601f191660200182016040528015611697576020820181803683370190505b5090505b841561171a576116ac600183612e6a565b91506116b9600a86612f34565b6116c4906030612e1f565b60f81b8183815181106116d9576116d9612f74565b60200101907effffffffffffffffffffffffffffffffffffffffffffffffffffffffffffff1916908160001a905350611713600a86612e37565b945061169b565b949350505050565b81518351146117995760405162461bcd60e51b815260206004820152602860248201527f455243313135353a2069647320616e6420616d6f756e7473206c656e6774682060448201527f6d69736d617463680000000000000000000000000000000000000000000000006064820152608401610595565b6001600160a01b0384166117fd5760405162461bcd60e51b815260206004820152602560248201527f455243313135353a207472616e7366657220746f20746865207a65726f206164604482015264647265737360d81b6064820152608401610595565b3361180c818787878787611f9f565b60005b845181101561193557600085828151811061182c5761182c612f74565b60200260200101519050600085838151811061184a5761184a612f74565b602090810291909101810151600084815280835260408082206001600160a01b038e1683529093529190912054909150818110156118dd5760405162461bcd60e51b815260206004820152602a60248201527f455243313135353a20696e73756666696369656e742062616c616e636520666f60448201526939103a3930b739b332b960b11b6064820152608401610595565b6000838152602081815260408083206001600160a01b038e8116855292528083208585039055908b1682528120805484929061191a908490612e1f565b925050819055505050508061192e90612f19565b905061180f565b50846001600160a01b0316866001600160a01b0316826001600160a01b03167f4a39dc06d4c0dbc64b70af90fd698a233a518aa5d07e595d983b8c0526c8f7fb8787604051611985929190612d79565b60405180910390a461199b818787878787612007565b505050505050565b600454600160a01b900460ff166119fc5760405162461bcd60e51b815260206004820152601460248201527f5061757361626c653a206e6f74207061757365640000000000000000000000006044820152606401610595565b6004805460ff60a01b191690557f5db9ee0a495bf2e6ff9c91a7834c1ba4fdd244a5e8aa4e537bd38aeae4b073aa335b6040516001600160a01b03909116815260200160405180910390a1565b600480546001600160a01b038381167fffffffffffffffffffffffff0000000000000000000000000000000000000000831681179093556040519116919082907f8be0079c531659141344cd1fd0a4f28419497f9722a3daafe3b4186f6b6457e090600090a35050565b600454600160a01b900460ff1615611b0d5760405162461bcd60e51b815260206004820152601060248201527f5061757361626c653a20706175736564000000000000000000000000000000006044820152606401610595565b6004805460ff60a01b1916600160a01b1790557f62e78cea01bee320cd4e420270b5ea74000d11b0c9f74754ebdbfc544b05a258611a2c3390565b816001600160a01b0316836001600160a01b03161415611bd05760405162461bcd60e51b815260206004820152602960248201527f455243313135353a2073657474696e6720617070726f76616c2073746174757360448201527f20666f722073656c6600000000000000000000000000000000000000000000006064820152608401610595565b6001600160a01b03838116600081815260016020908152604080832094871680845294825291829020805460ff191686151590811790915591519182527f17307eab39ab6107e8899845ad3d59bd9653f200f220920489ca2b5937696c31910160405180910390a3505050565b6000611c48836115e8565b611c51836115e8565b604051602001611c62929190612c6d565b60405160208183030381529060405280519060200120905092915050565b6000611cc28383808060200260200160405190810160405280939291908181526020018383602002808284376000920191909152508892508991506121bc9050565b95945050505050565b6001600160a01b038416611d475760405162461bcd60e51b815260206004820152602160248201527f455243313135353a206d696e7420746f20746865207a65726f2061646472657360448201527f73000000000000000000000000000000000000000000000000000000000000006064820152608401610595565b33611d6781600087611d58886121d2565b611d61886121d2565b87611f9f565b6000848152602081815260408083206001600160a01b038916845290915281208054859290611d97908490612e1f565b909155505060408051858152602081018590526001600160a01b0380881692600092918516917fc3d58168c5ae7397731d063d5bbf3d657854427343f4c083240f7aacaa2d0f62910160405180910390a46108ec8160008787878761221d565b6001600160a01b038416611e5b5760405162461bcd60e51b815260206004820152602560248201527f455243313135353a207472616e7366657220746f20746865207a65726f206164604482015264647265737360d81b6064820152608401610595565b33611e6b818787611d58886121d2565b6000848152602081815260408083206001600160a01b038a16845290915290205483811015611eef5760405162461bcd60e51b815260206004820152602a60248201527f455243313135353a20696e73756666696369656e742062616c616e636520666f60448201526939103a3930b739b332b960b11b6064820152608401610595565b6000858152602081815260408083206001600160a01b038b8116855292528083208785039055908816825281208054869290611f2c908490612e1f565b909155505060408051868152602081018690526001600160a01b03808916928a821692918616917fc3d58168c5ae7397731d063d5bbf3d657854427343f4c083240f7aacaa2d0f62910160405180910390a461124482888888888861221d565b805161099890600290602084019061255c565b600454600160a01b900460ff1615611ff95760405162461bcd60e51b815260206004820152601060248201527f5061757361626c653a20706175736564000000000000000000000000000000006044820152606401610595565b61199b868686868686612328565b6001600160a01b0384163b1561199b5760405163bc197c8160e01b81526001600160a01b0385169063bc197c819061204b9089908990889088908890600401612cc5565b602060405180830381600087803b15801561206557600080fd5b505af1925050508015612095575060408051601f3d908101601f1916820190925261209291810190612ada565b60015b61214b576120a1612fa0565b806308c379a014156120db57506120b6612fbc565b806120c157506120dd565b8060405162461bcd60e51b81526004016105959190612d9e565b505b60405162461bcd60e51b815260206004820152603460248201527f455243313135353a207472616e7366657220746f206e6f6e204552433131353560448201527f526563656976657220696d706c656d656e7465720000000000000000000000006064820152608401610595565b6001600160e01b0319811663bc197c8160e01b146112445760405162461bcd60e51b815260206004820152602860248201527f455243313135353a204552433131353552656365697665722072656a656374656044820152676420746f6b656e7360c01b6064820152608401610595565b6000826121c98584612434565b14949350505050565b6040805160018082528183019092526060916000919060208083019080368337019050509050828160008151811061220c5761220c612f74565b602090810291909101015292915050565b6001600160a01b0384163b1561199b5760405163f23a6e6160e01b81526001600160a01b0385169063f23a6e61906122619089908990889088908890600401612d23565b602060405180830381600087803b15801561227b57600080fd5b505af19250505080156122ab575060408051601f3d908101601f191682019092526122a891810190612ada565b60015b6122b7576120a1612fa0565b6001600160e01b0319811663f23a6e6160e01b146112445760405162461bcd60e51b815260206004820152602860248201527f455243313135353a204552433131353552656365697665722072656a656374656044820152676420746f6b656e7360c01b6064820152608401610595565b6001600160a01b0385166123af5760005b83518110156123ad5782818151811061235457612354612f74565b60200260200101516003600086848151811061237257612372612f74565b6020026020010151815260200190815260200160002060008282546123979190612e1f565b909155506123a6905081612f19565b9050612339565b505b6001600160a01b03841661199b5760005b8351811015611244578281815181106123db576123db612f74565b6020026020010151600360008684815181106123f9576123f9612f74565b60200260200101518152602001908152602001600020600082825461241e9190612e6a565b9091555061242d905081612f19565b90506123c0565b600081815b8451811015610b3657600085828151811061245657612456612f74565b602002602001015190508083116124985760408051602081018590529081018290526060016040516020818303038152906040528051906020012092506124c5565b60408051602081018390529081018490526060016040516020818303038152906040528051906020012092505b50806124d081612f19565b915050612439565b8280546124e490612eb1565b90600052602060002090601f016020900481019282612506576000855561254c565b82601f1061251f5782800160ff1982351617855561254c565b8280016001018555821561254c579182015b8281111561254c578235825591602001919060010190612531565b506125589291506125d0565b5090565b82805461256890612eb1565b90600052602060002090601f01602090048101928261258a576000855561254c565b82601f106125a357805160ff191683800117855561254c565b8280016001018555821561254c579182015b8281111561254c5782518255916020019190600101906125b5565b5b8082111561255857600081556001016125d1565b60008083601f8401126125f757600080fd5b50813567ffffffffffffffff81111561260f57600080fd5b6020830191508360208260051b850101111561084a57600080fd5b600082601f83011261263b57600080fd5b8135602061264882612dfb565b6040516126558282612eec565b8381528281019150858301600585901b8701840188101561267557600080fd5b60005b8581101561269457813584529284019290840190600101612678565b5090979650505050505050565b803580151581146126b157600080fd5b919050565b600082601f8301126126c757600080fd5b813567ffffffffffffffff8111156126e1576126e1612f8a565b6040516126f8601f8301601f191660200182612eec565b81815284602083860101111561270d57600080fd5b816020850160208301376000918101602001919091529392505050565b60006020828403121561273c57600080fd5b813561274781613046565b9392505050565b60006020828403121561276057600080fd5b815161274781613046565b6000806040838503121561277e57600080fd5b823561278981613046565b9150602083013561279981613046565b809150509250929050565b600080600080600060a086880312156127bc57600080fd5b85356127c781613046565b945060208601356127d781613046565b9350604086013567ffffffffffffffff808211156127f457600080fd5b61280089838a0161262a565b9450606088013591508082111561281657600080fd5b61282289838a0161262a565b9350608088013591508082111561283857600080fd5b50612845888289016126b6565b9150509295509295909350565b600080600080600060a0868803121561286a57600080fd5b853561287581613046565b9450602086013561288581613046565b93506040860135925060608601359150608086013567ffffffffffffffff8111156128af57600080fd5b612845888289016126b6565b600080604083850312156128ce57600080fd5b82356128d981613046565b91506128e7602084016126a1565b90509250929050565b6000806040838503121561290357600080fd5b823561290e81613046565b946020939093013593505050565b6000806040838503121561292f57600080fd5b823567ffffffffffffffff8082111561294757600080fd5b818501915085601f83011261295b57600080fd5b8135602061296882612dfb565b6040516129758282612eec565b8381528281019150858301600585901b870184018b101561299557600080fd5b600096505b848710156129c15780356129ad81613046565b83526001969096019591830191830161299a565b50965050860135925050808211156129d857600080fd5b506129e58582860161262a565b9150509250929050565b60008060008060008060608789031215612a0857600080fd5b863567ffffffffffffffff80821115612a2057600080fd5b612a2c8a838b016125e5565b90985096506020890135915080821115612a4557600080fd5b612a518a838b016125e5565b90965094506040890135915080821115612a6a57600080fd5b50612a7789828a016125e5565b979a9699509497509295939492505050565b600060208284031215612a9b57600080fd5b612747826126a1565b600060208284031215612ab657600080fd5b5035919050565b600060208284031215612acf57600080fd5b81356127478161305b565b600060208284031215612aec57600080fd5b81516127478161305b565b60008060208385031215612b0a57600080fd5b823567ffffffffffffffff80821115612b2257600080fd5b818501915085601f830112612b3657600080fd5b813581811115612b4557600080fd5b866020828501011115612b5757600080fd5b60209290920196919550909350505050565b600060208284031215612b7b57600080fd5b813561ffff8116811461274757600080fd5b60008060408385031215612ba057600080fd5b50508035926020909101359150565b600081518084526020808501945080840160005b83811015612bdf57815187529582019590820190600101612bc3565b509495945050505050565b60008151808452612c02816020860160208601612e81565b601f01601f19169290920160200192915050565b60008351612c28818460208801612e81565b835190830190612c3c818360208801612e81565b7f2e6a736f6e0000000000000000000000000000000000000000000000000000009101908152600501949350505050565b60008351612c7f818460208801612e81565b7f3a000000000000000000000000000000000000000000000000000000000000009083019081528351612cb9816001840160208801612e81565b01600101949350505050565b60006001600160a01b03808816835280871660208401525060a06040830152612cf160a0830186612baf565b8281036060840152612d038186612baf565b90508281036080840152612d178185612bea565b98975050505050505050565b60006001600160a01b03808816835280871660208401525084604083015283606083015260a06080830152612d5b60a0830184612bea565b979650505050505050565b6020815260006127476020830184612baf565b604081526000612d8c6040830185612baf565b8281036020840152611cc28185612baf565b6020815260006127476020830184612bea565b6000808335601e19843603018112612dc857600080fd5b83018035915067ffffffffffffffff821115612de357600080fd5b6020019150600581901b360382131561084a57600080fd5b600067ffffffffffffffff821115612e1557612e15612f8a565b5060051b60200190565b60008219821115612e3257612e32612f48565b500190565b600082612e4657612e46612f5e565b500490565b6000816000190483118215151615612e6557612e65612f48565b500290565b600082821015612e7c57612e7c612f48565b500390565b60005b83811015612e9c578181015183820152602001612e84565b83811115612eab576000848401525b50505050565b600181811c90821680612ec557607f821691505b60208210811415612ee657634e487b7160e01b600052602260045260246000fd5b50919050565b601f8201601f1916810167ffffffffffffffff81118282101715612f1257612f12612f8a565b6040525050565b6000600019821415612f2d57612f2d612f48565b5060010190565b600082612f4357612f43612f5e565b500690565b634e487b7160e01b600052601160045260246000fd5b634e487b7160e01b600052601260045260246000fd5b634e487b7160e01b600052603260045260246000fd5b634e487b7160e01b600052604160045260246000fd5b600060033d1115612fb95760046000803e5060005160e01c5b90565b600060443d1015612fca5790565b6040516003193d81016004833e81513d67ffffffffffffffff8160248401118184111715612ffa57505050505090565b82850191508151818111156130125750505050505090565b843d870101602082850101111561302c5750505050505090565b61303b60208286010187612eec565b509095945050505050565b6001600160a01b038116811461145957600080fd5b6001600160e01b03198116811461145957600080fdfea26469706673582212200f9b67b8f464f00e3b43eb5da4403eac0f331453cfa35a655d00d9897febe97064736f6c63430008070033",
  "linkReferences": {},
  "deployedLinkReferences": {}
}